{
  "_format": "hh-sol-artifact-1",
  "contractName": "CurrencyConverter",
  "sourceName": "contracts/PriceConsumerV3.sol",
  "abi": [
    {
      "inputs": [],
      "stateMutability": "nonpayable",
      "type": "constructor"
    },
    {
      "inputs": [],
      "name": "getAvaxUsdPrice",
      "outputs": [
        {
          "internalType": "uint256",
          "name": "",
          "type": "uint256"
        }
      ],
      "stateMutability": "view",
      "type": "function"
    },
    {
      "inputs": [],
      "name": "getDotUsdPrice",
      "outputs": [
        {
          "internalType": "uint256",
          "name": "",
          "type": "uint256"
        }
      ],
      "stateMutability": "view",
      "type": "function"
    },
    {
      "inputs": [],
      "name": "getLinkUsdPrice",
      "outputs": [
        {
          "internalType": "uint256",
          "name": "",
          "type": "uint256"
        }
      ],
      "stateMutability": "view",
      "type": "function"
    },
    {
      "inputs": [],
      "name": "getMaticUsdPrice",
      "outputs": [
        {
          "internalType": "uint256",
          "name": "",
          "type": "uint256"
        }
      ],
      "stateMutability": "view",
      "type": "function"
    }
  ],
  "bytecode": "0x608060405234801561001057600080fd5b50735498bb86bc934c8d34fda08e81d444153d0d06ad6000806101000a81548173ffffffffffffffffffffffffffffffffffffffff021916908373ffffffffffffffffffffffffffffffffffffffff160217905550733c07402a102647102d03e14582251cf49d6217b4600160006101000a81548173ffffffffffffffffffffffffffffffffffffffff021916908373ffffffffffffffffffffffffffffffffffffffff16021790555073b0924e98cafc880ed81f6a4ca63fd61006d1f8a0600260006101000a81548173ffffffffffffffffffffffffffffffffffffffff021916908373ffffffffffffffffffffffffffffffffffffffff1602179055507334c4c526902d88a3aa98db8a9b802603eb1e3470600360006101000a81548173ffffffffffffffffffffffffffffffffffffffff021916908373ffffffffffffffffffffffffffffffffffffffff1602179055506105a8806101736000396000f3fe608060405234801561001057600080fd5b506004361061004c5760003560e01c80637d9586b2146100515780638cfba64e1461006f578063b55ca4dc1461008d578063e4290e70146100ab575b600080fd5b6100596100c9565b6040516100669190610488565b60405180910390f35b610077610188565b6040516100849190610488565b60405180910390f35b610095610245565b6040516100a29190610488565b60405180910390f35b6100b3610304565b6040516100c09190610488565b60405180910390f35b600080600360009054906101000a900473ffffffffffffffffffffffffffffffffffffffff1673ffffffffffffffffffffffffffffffffffffffff1663feaf968c6040518163ffffffff1660e01b815260040160a06040518083038186803b15801561013457600080fd5b505afa158015610148573d6000803e3d6000fd5b505050506040513d601f19601f8201168201806040525081019061016c9190610402565b5050509150506305f5e1008161018291906104a3565b91505090565b60008060008054906101000a900473ffffffffffffffffffffffffffffffffffffffff1673ffffffffffffffffffffffffffffffffffffffff1663feaf968c6040518163ffffffff1660e01b815260040160a06040518083038186803b1580156101f157600080fd5b505afa158015610205573d6000803e3d6000fd5b505050506040513d601f19601f820116820180604052508101906102299190610402565b5050509150506305f5e1008161023f91906104a3565b91505090565b600080600260009054906101000a900473ffffffffffffffffffffffffffffffffffffffff1673ffffffffffffffffffffffffffffffffffffffff1663feaf968c6040518163ffffffff1660e01b815260040160a06040518083038186803b1580156102b057600080fd5b505afa1580156102c4573d6000803e3d6000fd5b505050506040513d601f19601f820116820180604052508101906102e89190610402565b5050509150506305f5e100816102fe91906104a3565b91505090565b600080600160009054906101000a900473ffffffffffffffffffffffffffffffffffffffff1673ffffffffffffffffffffffffffffffffffffffff1663feaf968c6040518163ffffffff1660e01b815260040160a06040518083038186803b15801561036f57600080fd5b505afa158015610383573d6000803e3d6000fd5b505050506040513d601f19601f820116820180604052508101906103a79190610402565b5050509150506305f5e100816103bd91906104a3565b91505090565b6000815190506103d28161052d565b92915050565b6000815190506103e781610544565b92915050565b6000815190506103fc8161055b565b92915050565b600080600080600060a0868803121561041a57600080fd5b6000610428888289016103ed565b9550506020610439888289016103c3565b945050604061044a888289016103d8565b935050606061045b888289016103d8565b925050608061046c888289016103ed565b9150509295509295909350565b610482816104de565b82525050565b600060208201905061049d6000830184610479565b92915050565b60006104ae826104de565b91506104b9836104de565b9250826104c9576104c86104fe565b5b828204905092915050565b6000819050919050565b6000819050919050565b600069ffffffffffffffffffff82169050919050565b7f4e487b7100000000000000000000000000000000000000000000000000000000600052601260045260246000fd5b610536816104d4565b811461054157600080fd5b50565b61054d816104de565b811461055857600080fd5b50565b610564816104e8565b811461056f57600080fd5b5056fea26469706673582212205194a0c86d01e0b6b4f009e286bc830c4035988c9f079f9bb1f6cf20c00fc84964736f6c63430008040033",
  "linkReferences": {},
  "deployedLinkReferences": {}
}